:020000040800F2
:1000000000800120D51C0008291D0008291D0008BA
:10001000291D0008291D0008291D000800000000F6
:10002000000000000000000000000000291D000882
:10003000291D000800000000291D0008291D0008D6
:10004000291D0008291D0008291D0008291D000878
:10005000291D0008291D0008291D0008291D000868
:10006000291D0008291D0008291D0008291D000858
:10007000291D0008291D0008291D0008291D000848
:10008000291D0008291D0008291D00080000000086
:10009000000000000000000000000000291D000812
:1000A000291D0008291D0008291D0008291D000818
:1000B000291D0008291D0008291D0008291D000808
:1000C000291D0008291D0008291D0008291D0008F8
:1000D000291D0008291D0008291D00080000000036
:1000E000291D0008291D0008291D00080000000026
:1000F000000000000000000000000000291D0008B2
:1001000000000000291D0008291D0008291D000805
:1001100000000000000000000000000000000000DF
:10012000291D0008291D0008291D0008291D000897
:10013000291D000800000000000000000000000071
:10014000000000000000000000000000291D000861
:10015000291D0008291D0008291D0008291D000867
:10016000291D0008291D00080000000000000000F3
:10017000000000000000000000000000000000007F
:1001800000000000291D0008000000000000000021
:10019000291D000808B50548054B1B1A062B00D879
:1001A00008BD044B002BFBD09847F9E774030020EF
:1001B000770300200000000008B50748074B1B1A12
:1001C0009B1003EBD373591000D108BD044A002AD9
:1001D000FBD09047F9E700BF7403002074030020B0
:1001E0000000000010B5064C237843B9FFF7D2FF9A
:1001F000044B13B10448AFF300800123237010BDFA
:100200007403002000000000F40C020808B5074B3E
:100210001BB107480749AFF300800748036813B1D3
:10022000064B03B19847BDE80840C5E70000000051
:10023000F40C020878030020700300200000000086
:10024000134B002B08BF114B9D46A3F5803A0021AC
:100250008B460F461148124A121A14F075FE0D4BC8
:10026000002B00D098470C4B002B00D09847002063
:10027000002104000D000B4813F0FDFF14F082FC78
:100280002000290001F008FD14F05EF800000800CD
:100290000080012000000000000000007403002026
:1002A000881E0020F1460108416170474162704795
:1002B000A0F10800FFF7FABFC1627047A0F10C007F
:1002C000FFF7FABF40697047836918687047A0F16B
:1002D0000400FFF7F9BF406A7047A0F10800FFF77C
:1002E000FABFC06A7047A0F10C00FFF7FABF816245
:1002F0007047A0F11000FFF7FABF806A7047A0F1C5
:100300001000FFF7FABF38B50024054644632046C5
:1003100004F006FA16F0FAFA2C6338BD2DE9F3471B
:1003200080466A46894601A81F4905F0B9FF01A821
:1003300001F030FA01A805F0DBFC04F003FA1CF030
:1003400015FE04460D46D8F82C0003689B689847B4
:10035000824628BB04F0F6F91CF008FE22462B4624
:100360001CF0C6FC0022114B1CF0A0FF06464846BC
:100370000F461CF00BFE02460B46304639461CF079
:10038000B9FC1DF003F95A280ADCD8F82C000368E0
:100390005B689847D8F830300133C8F83030D2E77E
:1003A000504602B0BDE8F087ACDC010800005940BF
:1003B000091A38B58C10054613464FEA840405D057
:1003C00010462946224614F0A4FD0346181938BDEC
:1003D0002DE9F843914643688268934204460E46ED
:1003E00014D013B153F8042C1A606068021F031D67
:1003F000921B63609210D9F8004004D09200801ADA
:10040000314614F086FD3460BDE8F88302689D1A19
:10041000AD1014BF2946012149196FF0404502D2A1
:10042000A94238BF0D46C2EB06084FEAA808AF0044
:100430001DB1384604F0CEFA054605EB88031BB122
:10044000D9F8003045F8283031462A462068FFF7B1
:10045000AFFF6168021D3046FFF7AAFF064620681D
:1004600008B104F0B2FA84E860003D44A560BDE83C
:10047000F88307B5C369026A0191934205D003B1BD
:100480001960C3690433C36104E01830194601AA36
:10049000FFF79EFF03B05DF804FBA0F10400FFF737
:1004A000E8BF8B69CA69D21A92104FF0000370B589
:1004B00004460D460360436083604FEA820608D01D
:1004C000B2F1804F01D306F07DFA304604F082FA93
:1004D0000246164422606260A660A869E969FFF7D7
:1004E00067FF6060204670BD10B5054C204604F0E3
:1004F0006FFF20460349044ABDE8104004F060BA8B
:1005000090030020E154000894010020406A024B4F
:10051000C31A5842584170473F0D030038B504468E
:100520000D4600F065FA024B2360E561204638BDB8
:1005300030DD010838B50025044680F82850C06930
:1005400003685B68984703684FF07E511B699847C2
:1005500084F82050E5620248BDE8384004F02CB928
:100560009A99993E4FF0FF334362FFF7E3BF0000D3
:10057000C36A013313B5C362436A023304460C2BCA
:1005800000F22581DFE813F021000D0035003C006A
:1005900050006100750089009D00AD00C000D000D2
:1005A0000E0190F8283013B9012380F82830894BC8
:1005B00089492046002200F0F7FA94F82030002BF9
:1005C00000F005816FF00103FDE090F8283013B9C9
:1005D000012380F82830814B20464FF07E510022C5
:1005E00000F074FB94F82030002B00F0F080012321
:1005F000E9E04FF07E5004F0DFF801236362E6E0AB
:1006000090F8283013B9012380F82830744B204625
:100610004FF07E51012200F0C7FA94F82030002BF1
:1006200000F0D5800223CEE090F8283013B90123E2
:1006300080F8283020466B4900F07EFA94F820308C
:10064000002B00F0C4800323BDE090F8283013B9DC
:10065000012380F82830644B20464FF07E51012260
:1006600000F034FB94F82030002B00F0B08004231D
:10067000A9E090F8283013B9012380F82830584BAE
:1006800020464FF07E51002200F020FB94F82030ED
:10069000002B00F09C80052395E090F8283013B9DA
:1006A000012380F828304E4B20464FF07E51012226
:1006B00000F07AFA94F82030002B00F088800623AE
:1006C00081E090F8283013B9012380F828302046C3
:1006D000414900F049FA94F82030002B77D00723E5
:1006E00071E090F8283013B9012380F828303C4B92
:1006F00020464FF07E51012200F056FA94F8203047
:10070000002B64D008235EE090F8283013B9012351
:1007100080F828302046304900F00EFA94F8203056
:10072000002B54D009234EE090F828306BB92F49A4
:100730006A4601A805F0B4FD01A801F019F801A866
:1007400005F0D6FA012384F8283029496A4601A821
:1007500005F0A6FD01A801F00BF801A805F0C8FA04
:100760001F4B20464FF07E51002200F0AFFA214986
:100770006A4601A805F094FD01A800F0F9FF01A860
:1007800005F0B6FA94F820300BB31B496A4601A86D
:1007900005F086FD01A800F0EBFF01A805F0A8FA1E
:1007A0000A2310E090F8283013B9012380F828308C
:1007B000124B20464FF07E51012200F0F5F994F8DB
:1007C000203023B10E4B63622046FFF7B3FE02B028
:1007D00010BD00BF00281946CDCC4C3FCD94224619
:1007E00000600D453333333F0098014640DD01087A
:1007F00050DD010865DD01087BDD010800B83046E9
:100800003F0D030010B5054C204604F0E1FD2046E5
:100810000349044ABDE8104004F0D2B89103002017
:10082000E15400089401002010B5054C204604F066
:10083000CFFD20460349044ABDE8104004F0C0B88B
:1008400092030020E1540008940100200000000001
:10085000F0B5B1B00746102103A804F051FB0526FE
:100860003B6838469B68984723A3D3E90023044696
:100870000D461CF081FE00282FD02046294620A3DB
:10088000D3E900231CF05AFE38B322462B4603A8B6
:1008900004F069FD30AC01A804A904F025F9144B5B
:1008A00044F8B83D019B53F80C1C20460C3105F070
:1008B00076FB0C220F49204605F0BEFB01A920461D
:1008C00005F08DFB204600F065FF204605F010FA8C
:1008D00001A805F00DFA012601E0013EC0D103A8F0
:1008E00004F0BCF8304631B0F0BD00BFAFF300807B
:1008F000100D002086DD0108FCA9F1D24D62503FA9
:100900009A9999999999B93F08B5406800F0E9FC1E
:100910001CF04EFB08BD000037B5044639B93C2039
:1009200004F058F80A4B00930546262108E00129F7
:100930000BD13C2004F04EF8054B009305462821CE
:100940000A22044B00F0C1FC656003B030BD00BF5B
:10095000A08601000040B5450021FFF7DDBF000083
:1009600010B5054C204604F033FD20460349044AE7
:10097000BDE8104004F024B893030020E1540008BF
:1009800094010020036E01330366704707B50246E9
:10099000086849686B4603C3481011F0010F18BF7F
:1009A0001158009B104418BFCB58984703B05DF80E
:1009B00004FB000013B5044603F08CFD00220A4B33
:1009C000009301926B4603CB084B616301212063C6
:1009D000A26204F11800E46223640A4603F064F89A
:1009E000204602B010BD00BF850900088D0900082F
:1009F000104B70B500250360002304468360C1617D
:100A0000C5600571642003F0E5FF1E210646FFF76F
:100A1000D1FF6661642003F0DDFF1D210646FFF76C
:100A2000C9FFA66184F8205025746574A57420461A
:100A300070BD00BFB8DD010870B52DED028B0379E4
:100A4000B2B004460D4608EE102ACBB900238360ED
:100A5000C069B5EEC08A0368F1EE10FA5B6806DD86
:100A6000984703682946DE682F4B002205E0984727
:100A70000368DE682D4B29460022B047012323710D
:100A8000E06903685B699847036801AA9D68694645
:100A900002ABA847102105A804F032FAA16805A806
:100AA00004F065FC32AD03A806A904F01DF8204B44
:100AB00045F8B83D039B53F80C1C28460F3105F050
:100AC0006EFA0F221B49284605F0B6FA03A92846FC
:100AD00005F085FA284600F05DFE284605F008F985
:100AE00003A805F005F9D4ED027AB0EEC88AF4EE59
:100AF000C87AF1EE10FA08D59DED027AB0EEC77A09
:100B000077EE877AC4ED027A06E0012384F820307C
:100B10000023A3600023237105A803F09FFF32B0D8
:100B2000BDEC028B70BD00BF0000F0BF0000F03FC5
:100B3000100D0020C8DD0108002310B5044680F820
:100B40002030074AFFF778FFE368DA1C054B1340B3
:100B5000002B03DA013B63F003030133E36010BDB4
:100B60000000B4C203000080002310B5044680F8E2
:100B70002030074AFFF760FFE3685A1C054B13401B
:100B8000002B03DA013B63F003030133E36010BD84
:100B90000000B4420300008010B50446006808B1AC
:100BA00003F013FF204610BDF0B52DED028B044677
:100BB00085B001A80D46E169174608EE103AFFF727
:100BC00070FC019B186803685B689847064601A89B
:100BD000FFF7E2FF237C73B9A269E069A37484F88C
:100BE000203013660123237403685B689847036809
:100BF00029465B689847002F37D030496A4601A8DC
:100C000005F04EFB01A800F0B3FD01A805F070F857
:100C1000AEB12B496A4601A805F042FB01A800F0DD
:100C2000A7FD01A805F064F8E0690123A374036837
:100C30005B68984703684FF07E511B6914E0A37C02
:100C40009BB120496A4601A805F02AFB01A800F0E3
:100C50008FFD01A805F04CF8E069A67403685B6895
:100C6000984703685B6829469847A369D3ED187ACB
:100C7000F8EEE77AF4EEC87AF1EE10FA19DB1249D1
:100C80006A4601A805F00CFB01A800F071FD01A85F
:100C900005F02EF8E069012384F8203003685B68D2
:100CA000984703684FF07E511B69984700232374CF
:100CB000A37405B0BDEC028BF0BD00BFD8DD010808
:100CC000EADD0108F9DD010812DE01082DE9F04135
:100CD0002DED028B044684B001A80E46E1699046D2
:100CE00008EE103AFFF7DDFB019B586803685B686C
:100CF0009847074601A8FFF74FFF657CCDB93F49EC
:100D00006A4601A805F0CCFA01A800F031FD01A85F
:100D100004F0EEFFA369E069A57484F820501D6615
:100D20000123637403685B689847036831469B68D6
:100D30009847B8F1000F37D031496A4601A805F04D
:100D4000AFFA01A800F014FD01A804F0D1FFAFB183
:100D50002C496A4601A805F0A3FA01A800F008FD95
:100D600001A804F0C5FFE0690123A37403685B6870
:100D7000984703684FF07E511B6914E0A37C9BB138
:100D800021496A4601A805F08BFA01A800F0F0FCA1
:100D900001A804F0ADFFE069A77403685B68984799
:100DA00003689B6831469847A369D3ED187AF8EE3B
:100DB000E77AF4EEC87AF1EE10FA19DB13496A46C5
:100DC00001A805F06DFA01A800F0D2FC01A804F01A
:100DD0008FFFE069012384F8203003685B6898473F
:100DE00003684FF07E511B69984700236374A37416
:100DF00004B0BDEC028BBDE8F08100BF1EDE01082F
:100E00002BDE010840DE010851DE01086DDE01081D
:100E100010B5054C204604F0DBFA20460349044A8D
:100E2000BDE8104003F0CCBD94030020E15400085D
:100E30009401002010B5054C204604F0C9FA204664
:100E40000349044ABDE8104003F0BABD95030020F1
:100E5000E15400089401002010B5054C204604F030
:100E6000B7FA20460349044ABDE8104003F0A8BD84
:100E700096030020E15400089401002037B5054690
:100E80006A460C4601A80A4905F00AFA01A800F0D2
:100E900081FC01A804F02CFF6868214600F090FA5C
:100EA00068682146583000F08BFA03B030BD00BFAF
:100EB00083DE010837B504466A460D4601A80B4992
:100EC00005F0EEF901A800F065FC85F0004501A8E9
:100ED00004F00EFF6068294600F072FA6068294647
:100EE000583000F06DFA03B030BD00BF93DE01084A
:100EF00037B504466A460B4901A805F0D1F901A8A7
:100F000000F048FC002501A804F0F2FE60682946C4
:100F100000F056FA60682946583000F051FA03B0E4
:100F200030BD00BFA3DE010813B50F496A46044671
:100F300001A805F0B5F901A800F02CFC01A804F007
:100F4000D7FE6068403002F00DFC1CF031F804A3BD
:100F5000D3E900231CF080F81CF060FB02B010BD48
:100F60008B5242B0AAEA3640B5DE0108AFF30080EA
:100F7000F7B506460F4614461A496A4601A81D46AB
:100F800005F08EF901A800F005FC01A804F0B0FE00
:100F9000B368012B02D105F100431D4620462946C6
:100FA0000022114B1CF0C0FA40B1706887F000417C
:100FB00000F006FA7068394658300EE0204629469F
:100FC00000220A4B1CF0B0FA48B17068394600F0B4
:100FD000F7F9706887F00041583000F0F1F903B07C
:100FE000F0BD00BFCADE01080000F0BF0000F03F06
:100FF00013B50F496A46044601A805F051F901A846
:1010000000F0C8FB01A804F073FE6068403002F0F5
:10101000A9FB1BF0CDFF04A3D3E900231CF01CF8AF
:101020001CF0FCFA02B010BD8B5242B0AAEA364066
:10103000B5DE0108AFF3008070B586B004AA194987
:10104000054605A805F02CF905A800F0A3FB05A8A6
:1010500004F04EFEB02003F0BDFC012316220093E5
:1010600001920293082109220623044600F06CF93C
:101070000023272200930192029315221A230026AF
:1010800004F158000A2100F05FF9204631466C60F7
:1010900000F096F968683146583000F091F906B0D2
:1010A00070BD00BFDADE010807EE901AF5EEC07AD7
:1010B000436902891A80F1EE10FA48BFF1EE677AAF
:1010C000B7EE007A836A828B1A80F4EE477AF1EEEB
:1010D00010FA00F14800CCBF17EE101A17EE901A64
:1010E00002F094BF37B505466A460C4601A80A4986
:1010F00005F0D6F801A800F04DFB01A804F0F8FDBA
:1011000068682146FFF7D0FF686821465830FFF72E
:10111000CBFF03B030BD00BFE7DE0108014A02602B
:101120008160704700DF010810B5054C204604F0CF
:101130004FF920460349044ABDE8104003F040BC83
:1011400097030020E1540008940100201FB50446D5
:1011500001A902AA03AB406800F003FB94ED027AF8
:10116000DDED037A77EE277A17EE900AC4ED027A66
:1011700004B010BD406800F0F4BA000038B5044671
:10118000042003F027FC19210546182200F0D8FAA4
:101190006560284600F0E2FA20B90948BDE8384009
:1011A00015F0AABB606800F0DFFA064815F0A4FB52
:1011B0000023A3600448BDE8384003F0FDBA00BF37
:1011C00038DF01084EDF01080000404083681A68DC
:1011D00043681A420CBF002001207047002102F032
:1011E00061BAF8B50026044640F8046B0F4604F1D6
:1011F0001C0503F099F904F1100003F095F931464C
:101200001422284613F0A0FE2846394603F004FABB
:101210002046F8BD70B504460D461C300121164627
:1012200002F040FA236A0DB1A16A00E0E16A9BB2C4
:101230000B80304603F0B4FA236A0DB9A26A00E0CD
:10124000E26A9BB2138070BDF8B500F11004064647
:1012500020460F46351D03F0AFF9204603F070F924
:101260001C36284603F0A8F93046FFF7B7FF304692
:10127000FFF7ACFF01280AD1204603F079F9B84204
:10128000F5DD1FE0204603F073F9B8421ADC304662
:10129000FFF79CFF0028F5D0284603F051F93046AF
:1012A000FFF794FF012805D1204603F061F9B84209
:1012B000F5DD07E0284603F04DF92846BDE8F84083
:1012C00003F056B94FF0FF30F8BD70B504461E4626
:1012D0001546FFF786FF049B26636563A3632046DC
:1012E00070BD10B50446426B0121FFF793FF204605
:1012F000A16BFFF7A9FF07EE900AB8EEE77AFFEEC1
:10130000007AB4EE677AF1EE10FA1CBFD4ED0C7AD5
:10131000C7EE277A17EE900A10BD38B500F12C05FC
:1013200004460021284602F0BDF948342846012130
:1013300002F0B4F92046FA2102F0D6FE2046002140
:10134000BDE8384002F062BE2DE9F8430546044688
:101350000A9845F8040B1426884617462846324654
:101360000021994613F0F0FD2846414604F1180586
:1013700003F064F932462846002113F0E5FD2846C3
:10138000394604F12C0503F059F93246284600216C
:1013900013F0DAFD2846494603F03EF904F1400017
:1013A0009DF9201002F09EF904F148009DF92410E7
:1013B00002F0F0FE2046FFF7B0FF2046BDE8F883BC
:1013C00007EE901A10B504688168C269D4F101046F
:1013D000F5EEC07A38BF0024F1EE10FA48BFF1EE06
:1013E000677AB7EE007AF4EEC77A48BF84F001045A
:1013F000F1EE10FA034600F148000CDCF5EE407AFD
:10140000F1EE10FA09D15C699B6A89B292B221802F
:101410001A8000210FE0F0EE477A24B91C699B6A1C
:1014200089B2218003E05C695B6A89B2218092B253
:1014300017EE901A1A80BDE8104002F0E7BD0000D8
:101440007FB504AA0124094D02F8011D0646234672
:101450000094D02102F040FC00943046D0212A466E
:10146000234602F0A7FC287804B070BDA403002036
:101470002DE9F0410D461D21164604461F46FFF793
:10148000DFFF1E2180462046FFF7DAFF134B1B8843
:10149000184400EB0828A5F800801F212046FFF71C
:1014A000CFFF202105462046FFF7CAFF0C4B1B88C3
:1014B000184400EB0525358021212046FFF7C0FFA9
:1014C000222105462046FFF7BBFF064B1B88184428
:1014D00000EB05253D80BDE8F08100BF98030020AA
:1014E0009A0300209C03002010B549B2044652B272
:1014F00002F0EEFC20460249BDE8104002F0B4BB09
:10150000A086010073B5134C3E2301252370802370
:10151000637022460095D0210223064602F0DCFBD0
:101520001523237000236370224600953046D02196
:10153000022302F0D1FB1623237018236370009559
:101540003046D0212246022302F0C6FB284602B0D4
:1015500070BD00BFA603002008B507EE100A07EE15
:10156000901A2DED028B27EE278A18EE100A1BF039
:101570001FFD21F00043194608A3D3E900231BF007
:10158000FBFFDFED057A00280CBF17EE900A18EE7E
:10159000100ABDEC028B08BD00000000000000A096
:1015A0009999B93FAFF3008070B52DED028B82B0F1
:1015B0000E4615460DF1020101AA1C460DF1060367
:1015C000FFF756FF1E4802F0DFFF07EE900A1D48A6
:1015D00090ED008AC0ED007ABDF9020037EEC88AAE
:1015E0001BF0D4FC0022184B1BF060FE1CF016F818
:1015F00018EE101AFFF7B0FF3060BDF904001BF0C1
:10160000C5FC0022104B1BF051FE1CF007F818EE31
:10161000101AFFF7A1FF2860BDF906001BF0B6FC09
:101620000022094B1BF042FE1BF0F8FF18EE101AC7
:10163000FFF792FF2060012002B0BDEC028B70BD6D
:10164000A8030020A003002000C02C402DE9F74F84
:10165000324B334E334D002482461C8034802C8024
:101660004FF0C8092746A0469B460A2003F0B2F86F
:101670000DF1060350460DF1020101AAFFF7F8FE35
:10168000BDF802309844BDF804301F44BDF8063060
:10169000B9F101091C441FFA88F8BFB2A4B2E4D121
:1016A0000FFA88F83FB224B2C82388EAE871A1EBA8
:1016B000E87187EAE772A2EBE77284EAE470A0EBD4
:1016C000E47091FBF3F192FBF3F2B8F1000F90FBA1
:1016D000F3F3ABF8001032802B8002DD0F48494253
:1016E0000180002FC4BF52423280002CC4BF5B4235
:1016F0002B80B5F90030BBF90010B6F900200A487C
:1017000015F03CF8094802F01BFF084802F03CFFC6
:10171000074B1860012003B0BDE8F08F980300204C
:101720009A0300209C0300205FDF0108A80300202B
:10173000A0030020014802F0F7BE00BFA80300206C
:1017400070B5044608200E46154613F05FFB31467F
:1017500020602A46FFF7C8FE204670BD0068FFF7EC
:10176000D1BE0068FFF720BF0068FFF76FBF000021
:1017700010B506490446064803F092FD214604F0E0
:1017800001F9BDE8104003F0BBBC00BF7BDF0108DE
:101790004C0A002010B506490446064803F080FDB7
:1017A000214604F0EFF8BDE8104003F0A9BC00BFEB
:1017B0007FDF01084C0A002010B5054C204603F0DD
:1017C00007FE20460349044ABDE8104003F0F8B87C
:1017D000B4030020E1540008940100200000000040
:1017E0002DE9F04F95B01422002105A813F0ACFBB1
:1017F00005A8122102F010FF05A8012101F04EFFFB
:101800004FF07E5002F0D8FF079A069B15681D40E6
:10181000FCD102F097FF82463C2003F0DBF829461A
:101820003C22044613F090FB5F4B236003F130022F
:10183000626003F14002A26003F150026033E26093
:101840002361A561E56125620C2003F0C3F8012145
:101850008346FFF763FC082003F0BCF8534E066094
:1018600080464560082003F0B5F8074606604560ED
:101870000C2003F0AFF8002383604D4B0360064655
:101880004560302003F0A6F821468146FEF746FE6B
:101890002046FEF738FDDBF8003058461B689847B5
:1018A00040462946FFF738F801213846FFF734F85B
:1018B000336830461B689847236820461B685946A2
:1018C0009847236820469B684146984723682046EE
:1018D0009B6839469847236820461B6931469847DC
:1018E0002368494620469B699847D9F80030484606
:1018F0001B68984702F026FF6423CAEB0001B1FB86
:10190000F3F12046FEF70AFD1F21044601A802F06C
:1019100041FC142229460AA813F016FB0AA8132139
:1019200002F08CFE142229460FA813F00DFB0FA81D
:10193000142102F083FE01A84FF47A7102F0D4FB67
:101940000D9BBDF82C201A80139BBDF840201A80F7
:1019500002F0F8FE94B1CAEB00001BF007FB002276
:10196000144B1BF0A3FC02460B460DA1D1E900016C
:101970001BF0BEF91BF052FE02F01EFF01A84FF44F
:10198000C87102F079FC0C4802F016FF01A8002192
:1019900002F072FC002015B0BDE8F08FAFF30080BC
:1019A0000000000000C05640C0DC0108A0DD0108B6
:1019B00028DF0108000059409A99993FAFF3008051
:1019C00010B5054C204603F003FD20460349044AA8
:1019D000BDE8104002F0F4BFB5030020E154000858
:1019E0009401002008B572B6962002F0F3FE96200E
:1019F00002F0F0FEF8E700BF0F4A30B49368946835
:101A0000B4F1006F1A4604D0103030BC42F82010F8
:101A100070470A4A03F5CA7553F8044B42F8044F5D
:101A2000AB42F9D14FF00052034B10309A6030BCFA
:101A300042F82010704700BF00ED00E0FCFFFF1FE0
:101A400070B5114C2368DA68910715D4DA6852072B
:101A500009D56FF004020D4E1A615D6A3368EB1A06
:101A6000B3F57A7F00D270BD00F07CF92368356051
:101A700005F57A759D6370BD6FF002021A6102F080
:101A80006BFE2368E2E700BF741D0020B80300204E
:101A900038B5204B204C1A6C42F008021A641A6ABE
:101AA00042F008021A621A6A22F008021A6201F071
:101AB000BFFC1A4A1A4B12681A492160A3FB021292
:101AC000920C0025013A4FF0FF3320466260E3603C
:101AD0002561A560656101F0C5FA32201249FFF762
:101AE0008BFF124B4FF480225A602946204601F0AA
:101AF00027FA2046042101F023FA23680C495A6A88
:101B00000A6002F57A729A63DA6842F004022846A3
:101B1000DA6038BD00380240741D00209C010020AE
:101B200083DE1B43000C0040411A000800E100E086
:101B3000B803002008B501F07BFCBDE8084000F0C8
:101B4000F7B800BF02480221032202F0C9BB00BF60
:101B5000681E0020022808B50BDDC21E074B53F893
:101B60002200002143F8221028B103685B689847DF
:101B700008BD002008BD4FF0FF3008BDBC030020A9
:101B8000022870B50C4616460FDC0E4B1B680BB9CD
:101B9000FFF7D8FFA51936B114F8011B0A4802F067
:101BA0002BFCAC42F8D1304670BD0338074B53F8DC
:101BB000200018B103681B68984770BD4FF0FF30D4
:101BC00070BD00BF24070020681E0020BC03002059
:101BD000022810B50C4609DC0D4B1B688BB10D4873
:101BE00002F0FEFB01232070184610BD03380A4B9B
:101BF00053F8200040B103689B6898470346184695
:101C000010BDFFF79FFFEAE74FF0FF33ECE700BF9F
:101C100024070020681E0020BC030020022808B50D
:101C200008DD0338064B53F8200028B10368DB6851
:101C3000984708BD012008BD4FF0FF3008BD00BF28
:101C4000BC030020022808B508DD0338064B53F812
:101C5000200028B103681B69984708BD002008BD13
:101C60004FF0FF3008BD00BFBC030020022808B5BC
:101C700004D84FF400534B60002008BD12F05EFB07
:101C8000092303604FF0FF3008BD00BF08B50120F5
:101C900012F05AFB704700BF08B5FFF74BFFFFF784
:101CA000F9FFBDE80840FFF79BBD00BF074A136876
:101CB0001844EFF30881884202D21060184670473A
:101CC000034B0C221A604FF0FF3070479801002040
:101CD000841E0020DFF838D0002100F004B80D4B3E
:101CE0005B58435004310C480C4B42189A42FFF4A5
:101CF000F6AF0B4A00F003B8002342F8043B094B4F
:101D00009A42FFF4F9AF01F05FFCFEF799FA7047D1
:101D100000800120280D0208940100207403002097
:101D200074030020881E0020FFF7FEBF704700BF2D
:101D300008B50B4B1A6842F400721A601A6842F434
:101D400080621A601A6842F480721A60032000F000
:101D500081F90F20FFF79CFEFFF7E8FF002008BD88
:101D6000003C0240024B1A6801321A60704700BF03
:101D7000BC040020014B1868704700BFBC04002061
:101D8000704700BFF8B5044600287FD090F83D307A
:101D9000002B78D03E4A022384F83D3051682368F6
:101DA00021F44031516050686168014351605E68C0
:101DB0002769A568E068216BE26A26F480765E6098
:101DC0005E6846EA07265E605E6826F040765E60E2
:101DD0005E6835435D609D6825F400659D609D6883
:101DE00028439860986820F0706098609868014374
:101DF0009960996821F04051996099680A439A6006
:101E00009A6822F002029A609868A269616A40EAC0
:101E100042029A6041BB5A6822F400625A60DD6A4D
:101E2000E169226A606925F47005DD62DD6A013AC4
:101E300045EA0252DA629A6822F400729A609A685D
:101E400042EA41229A609A6822F480629A60996814
:101E5000002241EA8020012198602264104684F823
:101E60003C2084F83D10F8BD5968A26A41F4006135
:101E70005960596821F4604159605968013A41EA52
:101E800042325A60CBE7FFF77BFF83E70120F8BDC2
:101E90000023014090F83C30012B31D090F83D30C8
:101EA0000122222B0CBF3223122380F83C2002682F
:101EB00080F83D309368D9070AD4936843F0010352
:101EC000936040F21D2300BF013B9BB2002BFAD16F
:101ED0000C4B5B68DB0607D00B4B9A4204D0002307
:101EE00080F83C3018467047C36A002BF7D19368DE
:101EF00043F080439360002380F83C3018467047DD
:101F000002207047002301400020014070B50546C3
:101F10000C46FFF72FFF06462A6801E0611C0CD132
:101F200013689B07FAD595F83D30252B0CBF352358
:101F3000152385F83D30002070BD24B1FFF71AFF4E
:101F4000801B8442E8D20320002385F83D0085F8F9
:101F50003C3070BD0368D86C704700BF90F83C30CF
:101F6000012BF0B450D00A688E680123092A80F84A
:101F70003C30036826D81F69496802EB42040725F4
:101F8000A54027EA05051D611D6906FA04F42C43E6
:101F900006291C6127D801EB81015D6B05391F24DF
:101FA0008C4025EA04045C635C6B02FA01F1214376
:101FB000596326498B4237D0002380F83C30F0BC6F
:101FC0001846704702EB4204DF6849681E3C07254B
:101FD000A54027EA0505DD60DD6806FA04F42C4318
:101FE0000629DC60D7D90C2901EB81010FD81D6BC4
:101FF00023391F248C4025EA04041C631C6B02FA5D
:1020000001F121431963D4E70220F0BC7047DD6A77
:1020100041391F248C4025EA0404DC62DC6A02FAA0
:1020200001F12143D962C4E7122A08D0103A012AEB
:10203000C2D8074B5A6842F400025A60BCE7044B0E
:102040005A6842F480025A60B6E700BF002001409F
:1020500000230140074AD1684FF6FF030B4043F0CD
:10206000BF6300F0070043F4003343EA0023D3606A
:10207000704700BF00ED00E02DE9F00F82B00F685F
:10208000DFF85CC28F4E0197002303E00133102B71
:1020900000F0BC800122019D9A4002EA05049442AE
:1020A000F4D14A6822F01009B9F1020F6CD05D003A
:1020B0004FF00308D0F800B008FA05F86FEA0808F6
:1020C00002F0030A08EA0B0B0AFA05FA09F1FF39D4
:1020D0004BEA0A0AB9F1010FC0F800A07ED9D0F886
:1020E0000C908F6808EA090807FA05F548EA050523
:1020F000C560D500CAD5DCF84480734F23F00305D2
:1021000005F1804548F4804805F59C35CCF84480BD
:1021100003F00308D5F808A04FEA88084FF00F092C
:1021200009FA08F9B8422AEA090973D007F5806765
:10213000B84200F09E80654FB84200F09F80644F27
:10214000B84200F0A080634FB84200F0A180624F17
:10215000B84200F0A780614FB84200F0A880DFF8D5
:1021600084A1504500F09980DFF87CA1504500F033
:10217000A380DFF878A150450CBF4FF0090A4FF05B
:102180000A0A0AFA08F847E04FEAD30800EB880881
:1021900003F00709D8F820704FEA89094FF00F0AB9
:1021A0000AFA09FA27EA0A0A0F6907FA09F94AEA54
:1021B0000905C8F820505D004FF00308D0F800A0D2
:1021C00008FA05F86FEA080802F0030908EA0A0AA3
:1021D00009FA05F94AEA0909C0F80090D0F8089010
:1021E000CF6808EA090907FA05FA49EA0A09C0F8B6
:1021F0000890D0F804A0C2F300192AEA040A09FAE8
:1022000003F94AEA0909C0F8049068E702B0BDE89A
:10221000F00F70474FF0000848EA0908C5F8088039
:10222000D6F80080E543D7034CBF44EA080805EA26
:102230000808C6F80080D6F8048097034CBF44EA2B
:10224000080805EA0808C6F80480D6F80880D7020E
:102250004CBF44EA080805EA0808C6F80880D6F822
:102260000C80920254BF05EA080444EA0804F460B2
:102270000CE74FF0010A0AFA08F8CDE74FF0020A1E
:102280000AFA08F8C8E74FF0030A0AFA08F8C3E7A1
:102290004FF0040A0AFA08F8BEE74FF0070A0AFAF4
:1022A00008F8B9E74FF0050A0AFA08F8B4E74FF062
:1022B000060A0AFA08F8AFE74FF0080A0AFA08F81F
:1022C000AAE700BF003C01400000024000080240B5
:1022D000000C0240001002400014024000180240AE
:1022E00000380240001C024000200240002402404E
:1022F000704700BFF8B50446002866D090F8353026
:10230000002B4FD02368324D022284F835201A6802
:1023100022F001021A6000F057FB2E496268236820
:10232000A1FB0061890CAA42596025D85200B0FB7C
:10233000F2F0C0F30B020131032A19628CBF84460C
:102340004FF0040C206AE769E6682169A2696569B3
:10235000C3F81CC0384331432A4318609960DA60DF
:102360001868002240F001000121186084F836202E
:10237000104684F83510F8BD4FF49677164EA568D0
:1023800007FB01F1A6FB017189090131196265B9E9
:1023900002EB4202B0FBF2F0C0F30B0292B94FF035
:1023A000010CCFE7FFF7A4FFACE702EB820202EBE0
:1023B0008202B0FBF2F0C0F30B02002AEFD040F42F
:1023C000404CBFE740F4004CBCE70120F8BD00BF23
:1023D000A086010083DE1B43D34D6210014B012216
:1023E0001A60704720000E42F8B50368DE07044605
:1023F00035D5984A916801F00C01042900F0F98064
:10240000916801F00C01082900F0EF80924B914D8A
:1024100000221A70FFF7AEFC064606E0FFF7AAFCA2
:10242000801BB0F5FA7F00F2C0802B689903F5D4C9
:10243000894B22791A706368012B00F05F81FFF7E6
:1024400099FC844D064606E0FFF794FC801BB0F52E
:10245000FA7F00F2AA802B689B03F5D423689F07BC
:102460002FD57C4A916811F00C0F00F0A480916880
:1024700001F00C01082900F09A80E368002B00F0BD
:10248000D380764B734D01221A60FFF773FC06462A
:1024900005E0FFF76FFC801B642800F286802B6844
:1024A0006C4A9807F5D51168F82090FAA0F0B0FAB8
:1024B00080F02369C0B221F0F80183400B43136020
:1024C00023681A0720D4590734D4A369D3B1614DC6
:1024D000AA6802F00C02082A00F09480022B604BDC
:1024E0004FF000021A6000F0B080FFF743FC2C466A
:1024F000054604E0FFF73EFC401B642855D82368DE
:102500009B01F7D40020F8BD6369002B7CD0554BAC
:10251000504D01221A60FFF72DFC064604E0FFF73C
:1025200029FC801B642840D86B6F9F07F7D5236870
:102530005907CAD5474B4C4D1A6C42F080521A6469
:102540002B6843F480732B60FFF714FC064604E00D
:10255000FFF710FC801B642827D82B68DA05F7D515
:10256000424B3C4D00221A70FFF704FC064605E082
:10257000FFF700FC801BB0F5167F16D82B6F9B076A
:10258000F6D43A4B227A1A70A368012B00F0C68069
:10259000FFF7F0FB2F4D06462B6F980795D5FFF7F9
:1025A000E9FB801BB0F5167FF6D90320F8BD526811
:1025B00056023FF562AF274A1268950702D5E268D6
:1025C000012A1FD1234AF825106895FAA5F5B5FA16
:1025D00085F522691F49EDB220F0F800AA400243B8
:1025E0000A601A077FF56FAF8EE7526855027FF5D4
:1025F0000DAF184A126890037FF531AF6268012A67
:102600003FF42DAF0120F8BD164A124D1360FFF7BD
:10261000B1FB064604E0FFF7ADFB801B6428C4D87D
:102620006B6F9807F7D482E70C4A0A4D1360FFF7E7
:10263000A1FB064604E0FFF79DFB801B6428B4D88D
:102640002B689907F7D423683BE7FFF793FB06460F
:1026500013E000BF00380240023802400000474249
:1026600060004742800E47420070004070380240D0
:10267000FFF780FB801B642897D82B689901F7D45B
:1026800047F6C07595FAA5F5B5FA85F54FF44031D2
:1026900091FAA1F1B1FA81F14FF0706292FAA2F2CF
:1026A000B2FA82F2D4F820C0E769A66AD4F824E02E
:1026B000E06A224B224C4CEA0707EDB276080EFA8C
:1026C00005F5C9B247F00057013E3D43D2B206FAC4
:1026D00001F100FA02F229431143012261601A60FC
:1026E000FFF748FB054605E0FFF744FB401B642865
:1026F0003FF65BAF23689A01F6D503E7FFF73AFB95
:102700000F4D064606E0FFF735FB801BB0F5FA7F5C
:102710003FF64BAF2B689A03F5D59FE6FFF72AFBF0
:10272000074D06462B6F9F073FF5CFAEFFF722FB05
:10273000801BB0F5167FF5D937E700BF6000474230
:1027400000380240694B1A6802F00F028A422DE9F4
:10275000F0410C46054609D2CAB21A701B6803F054
:102760000F038B4255D00120BDE8F08103689A0722
:1027700006D55F4A8168906820F0F00001439160BF
:10278000DF0724D56B685A4A012B126800F0878056
:10279000022B00F08B809107E5D5554FBA6822F0E7
:1027A00003021343BB60FFF7E5FA6B68012B064693
:1027B00041F2883862D0022B05D16AE0FFF7DAFADD
:1027C000801B40456FD8BB6813F00C0FF6D1474B08
:1027D000E2B21A701B6803F00F03A342C3D12B6847
:1027E0005A0706D5424AE968906820F4E050014350
:1027F00091601B0707D53E4B29699A6822F4604215
:1028000042EAC1029A600F20FFF742F90020BDE8BA
:10281000F08103689F0706D5354A8168906820F0EB
:10282000F00001439160DE07DAD56B68304A012B76
:10283000126858D0022B53D0910794D52C4EB26811
:1028400022F003021343B360FFF794FA6B68012B85
:10285000044641F2883732D0022B05D13AE0FFF727
:1028600089FA001BB8421ED8B36813F00C0FF6D1DA
:10287000B5E7FFF77FFA801B404514D8BB6803F02B
:102880000C03042BF5D1A2E7FFF774FA801B404537
:1028900009D8BB6803F00C03082BF5D197E7960322
:1028A0003FF57BAF5FE70320BDE8F08190013FF586
:1028B00074AF58E7FFF75EFA001BB842F3D8B3686D
:1028C00003F00C03042BF5D189E7FFF753FA001B43
:1028D000B842E8D8B36803F00C03082BF5D17EE7C3
:1028E0009001ABD43FE79403A8D43CE7003C0240FE
:1028F00000380240234B9A6802F00C02042A10B4FC
:102900003CD0082A03D020485DF8044B7047586833
:102910005A6800F03F014FF4800393FAA3F3B3FA2F
:1029200083F302F48002DBB232FA03F3154B47F66D
:10293000C0725C6892FAA2F2B2FA82F247F6C073F1
:1029400014BF12481048D2B22340D3400D4AB0FB06
:10295000F1F000FB03F052684FF4403393FAA3F315
:10296000B3FA83F302F44032DBB222FA03F3013309
:102970005B00B0FBF3F05DF8044B704703485DF873
:10298000044B7047003802400024F40000127A0023
:1029900008B5FFF7AFFF094BF0229B6892FAA2F24D
:1029A000B2FA82F203F0F003D2B223FA02F204493F
:1029B000044B8A5CD040186008BD00BF003802405C
:1029C0008CDF01089C01002008B5FFF7E1FF084AF1
:1029D0004FF4E053926893FAA3F3B3FA83F302F44B
:1029E000E052DBB222FA03F3024AD35CD84008BDBE
:1029F000003802408CDF010808B5FFF7C9FF084A1C
:102A00004FF46043926893FAA3F3B3FA83F302F4AA
:102A10006042DBB222FA03F3024AD35CD84008BD1D
:102A2000003802408CDF0108704700BF0368F0B433
:102A30009E6A1B684E6003F4800703F07F04C3F3B3
:102A400005403F0CC3F306230F728C7008704B7067
:102A5000BAB9250906091A0905EB850504F00F0422
:102A600006EB860600F00F0002EB820203F00F0374
:102A700004EB450500EB460603EB42038D700E7038
:102A80004B700020F0BC704703685B68F0B4C3F380
:102A9000074003F03F04C3F34236C3F304230E7030
:102AA0008C70C8704B70BAB91E0925090209B700AD
:102AB00005EB850504F00F0403F00F033E4402EB21
:102AC000820200F00F0004EB450503EB460300EB28
:102AD00042028D704B70CA700020F0BC704700BF7E
:102AE00038B50368DA6822F0A002DA600446FFF71E
:102AF00041F9054605E0FFF73DF9401BB0F57A7F47
:102B000005D82368DB689B06F5D5002038BD032077
:102B100038BD00BF38B50368DA685206044601D5EF
:102B2000002038BD4FF0FF32DA60FFF723F9054689
:102B30002368DB685B06F3D4FFF71CF9401BB0F594
:102B40007A7FF5D9032038BD2DE9F04104460028ED
:102B500043D0437F002B3DD023680220CA2153225B
:102B60006077596220465A62FFF7D4FF236850BB52
:102B70009A68A168D4F80480D4F810C06769A56980
:102B8000E66822F4E00222F040029A609A6842EA83
:102B9000080242EA0C023A439A601E611A6942EA4C
:102BA00001421A61DA6822F08002DA601A6C22F4BB
:102BB00080221A641A6CFF21154301221D64596298
:102BC0006277BDE8F081FF2104225962012062771B
:102BD000BDE8F081FFF728FFBEE70120BDE8F081E6
:102BE000F8B5037F012B04460D467FD00121022357
:102BF000017743770168002A3BD08A686F78AB7809
:102C000012F0400204BF2A720168287818BF2A7A9D
:102C10004FEA072747EA004718BF12041F4317432C
:102C2000CA205322486220464A62FFF773FF0646D5
:102C300000285ED12268E868296907F07F3323F015
:102C4000FE431360936823F48023936093680343E7
:102C50000B439360D36823F08003D36093689B0693
:102C600051D5FF2001210023506261772377304640
:102C7000F8BD8E682B7816F0400615BF2E7A2E729E
:102C800036040168092B4CD900220A3BDBB2092B20
:102C900002F10102F9D812015FFA82FE6A784EEA67
:102CA0000303092A4FEA034E4FF0000007D90A3AFE
:102CB000D2B2092A00F10100F9D80001C0B2AB7804
:102CC0000243092B4FEA02224FF0000007D90A3BCA
:102CD000DBB2092B00F10100F9D80001C0B24EEAC5
:102CE000060646EA020703431F4399E702263046D9
:102CF000F8BD2368FF200421002201265862617775
:102D000022773046F8BD2046FFF7EAFE08B9226870
:102D1000A7E72368FF2104225962267762770126FC
:102D2000A5E74FF0000EB9E7037F012B70B506460B
:102D300063D001200223307773774AB34C78C87888
:102D40008A780B78240244EA0044144344EA43346A
:102D50003368CA215322596230465A62FFF7DAFEBD
:102D6000054600284CD1336824F07F4424F0C00489
:102D70005C60DA6822F08002DA609A6892064FD5C9
:102D8000FF2001210022586271773277284670BDFA
:102D90004A78D0063ED4CB78092B4FF0000407D9EF
:102DA0000A3BDBB2092B04F10104F9D82401E4B297
:102DB0002343092A4FEA03433FD900240A3AD2B2F7
:102DC000092A04F10104F9D82001C0B28C78024329
:102DD000092C4FEA02204FF0000507D90A3CE4B263
:102DE000092C05F10105F9D82D01EDB20A7843EA65
:102DF000423202432C431443AAE70225284670BD01
:102E00003368FF2004210022012558627177327750
:102E1000284670BD22F010020A32D2B24A70BAE7D8
:102E20003046FFF75DFE33680028A9D0FF21042259
:102E30005962357772770125A8E70020C6E700BF01
:102E4000036A23F00103F0B48F680E680362036A1B
:102E5000104D4268846923F0020324F07304A842F1
:102E600043EA070344EA060406D0496842608461E5
:102E70004163F0BC03627047CF688E694D6923F0EF
:102E8000080322F440723B43354323F004032A43F2
:102E9000EBE700BF00000140036A23F48073F0B445
:102EA0008F680E680362036A114D4268C46923F497
:102EB000007324F07304A84243EA072344EA06049B
:102EC00006D049684260C461C163F0BC03627047C8
:102ED000CF684E698D6923F4006322F4405243EABF
:102EE000072342EA061223F4806342EA0512E8E768
:102EF00000000140036A23F48053F0B48F680E6829
:102F00000362026A0C4D4368C46922F4005224F43F
:102F1000E644A84242EA073244EA062406D0496859
:102F20004360C4610164F0BC026270474D6923F4E0
:102F3000804343EA8513F2E700000140704700BF79
:102F400003680E4A186A10B4012404FA01F120EA59
:102F500001001862186A934241EA0001196207D021
:102F60001A685DF8044B42F0010200201A607047B5
:102F70005A6C42F400425A64F2E700BF000001407C
:102F8000704700BF03680E4A186A10B4012404FA9F
:102F900001F120EA01001862186A934241EA000137
:102FA000196207D01A685DF8044B42F00102002054
:102FB0001A6070475A6C42F400425A64F2E700BF4C
:102FC00000000140264A0368904230B434D0B0F18A
:102FD000804F20D0A2F57C4290421CD002F5806246
:102FE000904218D002F58062904214D002F59A32D5
:102FF000904214D002F58062904210D002F58062B7
:1030000090420CD08C680A6803600123C46282621B
:1030100030BC436170474A6823F070031343CD68A6
:103020008C680A6823F440732B4303600123C46255
:10303000826230BC436170474C68CA6823F07003F9
:103040001C4324F44074224302608B68C3620B6803
:1030500083620B6903630123436130BC704700BF87
:103060000000014010B5044690B190F8393063B1CA
:103070002146022351F8040B84F83930FFF7A2FFF0
:10308000012384F83930002010BDFFF757FFEFE728
:10309000012010BD10B5044690B190F8393063B1ED
:1030A0002146022351F8040B84F83930FFF78AFFD8
:1030B000012384F83930002010BDFFF761FFEFE7EE
:1030C000012010BD036A23F01003F0B48F680E686E
:1030D0000362036A114D4268846923F0200324F4DB
:1030E000E644A84243EA071344EA062406D04968A6
:1030F000426084618163F0BC03627047CF684E69AF
:103100008D6923F0800322F4406243EA071342EA08
:10311000860223F0400342EA8502E8E7000001400E
:1031200038B590F83830012B04460D4628D00121DF
:10313000022380F8381080F839300C2A19D8DFE8DB
:1031400002F0071818183418181847181818210012
:1031500029460068FFF774FE23682A69996941F0DF
:1031600008019961996921F00401996199690A43FB
:103170009A610123002084F8393084F8380038BD82
:10318000022038BD29460068FFF7B4FE236829698C
:10319000DA6942F40062DA61DA6922F48062DA61A3
:1031A000DA6942EA0122DA61E3E729460068FFF7BB
:1031B00089FF236829699A6942F400629A619A69D1
:1031C00022F480629A619A6942EA01229A61D0E708
:1031D00029460068FFF760FE23682A69D96941F033
:1031E0000801D961D96921F00401D961D9690A437B
:1031F000DA61BEE7036804201A6A00FA01F122EAE4
:1032000001021A621A6A114319625A6C42F40042AE
:103210005A641A6842F001021A600020704700BF29
:103220002DE9F0410568C1682B69C269D0F810E04A
:103230008768466923F4405319430446806929612D
:10324000EB684EEA070123F41643314323F00C03E5
:1032500011430B43EB606B6923F440730343B2F5F6
:10326000004F6B61594B3CD09D4200F08C8003F5C0
:1032700080639D4200F08780FFF7A6FB6368544E91
:1032800000EB80009B0000EB8000B0FBF3F7FFF742
:103290009BFB636800EB80009B0000EB8000B0FBB1
:1032A000F3F8FFF791FB636800EB800000EB800010
:1032B0009B00B0FBF3F3A6FB0727A6FB03237F09C4
:1032C0005B0964203F0100FB13884FEA081808F1EE
:1032D0003208A6FB0836C6F343163743AF60BDE895
:1032E000F0819D422DD003F580639D4229D0FFF7E8
:1032F0006BFB6368364E00EB80005B0000EB8000E8
:10330000B0FBF3F7FFF760FB636800EB80005B0046
:1033100000EB8000B0FBF3F8FFF756FBA6FB072796
:1033200063687F0900EB80003F0100EB80005B00D9
:10333000B0FBF3F3A6FB03235B09642202FB1388B3
:10334000C3E7FFF759FB6368214E00EB80005B0089
:1033500000EB8000B0FBF3F7FFF74EFB636800EB78
:1033600080005B0000EB8000B0FBF3F8FFF744FB4C
:10337000A6FB072763687F0900EB80003F0100EB95
:1033800080005B00D4E7FFF737FB6368104E00EB6B
:1033900080009B0000EB8000B0FBF3F7FFF72CFBF5
:1033A000636800EB80009B0000EB8000B0FBF3F84B
:1033B000FFF722FBA6FB072763687F0900EB80006D
:1033C0003F0100EB80009B00B2E700BF001001400E
:1033D0001F85EB51704700BF10B5044628B390F825
:1033E0003930FBB12368022284F83920DA6822F4EC
:1033F0000052DA602046FFF713FF23681A6922F4AF
:1034000090421A615A6922F02A025A61D868002251
:1034100040F400500121D86084F83A20104684F826
:10342000391010BDFFF7D6FFDCE7012010BD00BF4B
:10343000164B9A6802F00C02042A24D0082A0AD0FB
:10344000134A124B13489968134BC1F30311415CA3
:10345000CA401A607047586859685B6842024CBF9E
:103460000E4A0B4A01F03F01C3F38813B2FBF1F29D
:1034700002FB03F2054B5B68C3F3014301335B00BE
:10348000B2FBF3F2DDE7054ADBE700BF003802409C
:103490000024F4009CDF01089C01002000127A0047
:1034A0001E4A1F4B116C70B541F0805111641968B0
:1034B00092B021F4404141F400410122196006928A
:1034C000B0B9079207234FF4A871042202244FF4E5
:1034D0008006082506A811930C940D960E950F9161
:1034E0001092FEF781FF034628B1002012B070BD94
:1034F00005230793E6E74FF4805221460F2501A8E4
:1035000002940393059301950492FFF71BF9D0F100
:10351000010038BF002012B070BD00BF003802406B
:10352000007000401E4A1F4B116CF0B541F08051F5
:1035300011641A6822F4404293B042F400421A60C7
:103540004FF0030E10230024042107220127022537
:103550004FF4A87606A80A930E93CDF818E00997C1
:1035600007940D940C950F9610911192FEF73CFF65
:10357000034610B1204613B0F0BD4FF480522946E7
:103580000F2401A802950393059301940492FFF779
:10359000D9F8D0F1010038BF002013B0F0BD00BF52
:1035A000003802400070004008B50120FFF778FFA6
:1035B00000B108BDFFF774FF0028FAD1FFF7B2FF92
:1035C0000028F6D1FEE700BF174B1848D3F8882033
:1035D00070B542F47002164CC3F888202268154E6C
:1035E000154D002142F001022260A160226822F004
:1035F000847222F480322260666026684FF0006296
:1036000026F480262660E1609A600560FEF790FB54
:10361000FFF7CAFF236A43F008032362236A23F0FB
:103620000803236270BD00BF00ED00E09C01002094
:1036300000380240103000240024F400431C10B570
:10364000044608D02046002100F0B6FA04F00F042A
:103650000120A04010BD03480349272200F0B4FF19
:10366000F0E700BFACDF0108C0DF010870B5044619
:103670004B1C0D46217010D0C1F3031000F054FA1A
:1036800006462846FFF7DAFF06F1100206F1180396
:103690001A366060A260E360266170BD90F9000098
:1036A00000F0BABA38B5054690F90000431C0C4644
:1036B0000BD0012C04D00021BDE8384000F07CBACA
:1036C0002146BDE8384000F077BA04480449472253
:1036D00000F07AFF95F90000EBE700BF28E0010851
:1036E000C0DF010870B50C4605461849204600F0B9
:1036F000FDFF2860013023D02046144900F0C2FFAE
:10370000134A2C71136803B170BD12482C68466CC3
:1037100001211160104A46F48075536045641460BD
:103720001046BDE8704093601361936153629362E9
:10373000D3621363D3601162D3615361FEF722BB7E
:10374000064807492E2200F03FFFD5E780E6010832
:10375000C004002000380240B01D002040E00108F5
:1037600058E0010800B53B4A03790168116085B053
:10377000002201215BB2019102920392252B14D801
:10378000DFE803F03A3D404346494C4F131313130F
:103790001313131352551313131313131313131378
:1037A00013131313585B5E61641ADFED2B7A17EE67
:1037B000900A05B05DF804FB0F2300936946254885
:1037C000FEF7CCFB2348FEF765FB22480A21FEF7F3
:1037D0009DFB0028E9D11F48FEF7BCFB80B207EE35
:1037E000100AF8EE477A9FED1D7A67EE877A17EE9A
:1037F000900A05B05DF804FB00230093DEE7012387
:103800000093DBE702230093D8E703230093D5E777
:1038100004230093D2E705230093CFE70623009308
:10382000CCE707230093C9E708230093C6E70923E1
:103830000093C3E70A230093C0E70B230093BDE77F
:103840000C230093BAE70D230093B7E70E230093F0
:10385000B4E700BFB01D002000000000010880395F
:10386000194B2DE9F0474FF04C080F4608FB003884
:1038700039B3DFF85890DFF858A0454600240126F8
:10388000D8F8003006FA04F21A4215D06B6BD9F85A
:103890001420E96906FA03F313420DD0C9F8143075
:1038A0006A684AB109690B4210464FF00101DAF823
:1038B000003008BF022198470134BC4205F10405DD
:1038C000DED1BDE8F08700BFC4040020003C014009
:1038D000D806002000200121FFF7C2BF01200146C9
:1038E000FFF7BEBF02200121FFF7BABF032001216D
:1038F000FFF7B6BF04200121FFF7B2BF0520014644
:10390000FFF7AEBF06200146FFF7AABF2DE9F04F33
:1039100085B09B464B1C0C460546029200F0888001
:1039200001F00F06731EC1F303100E2B47D8DFE81A
:1039300003F04E57616B08080808087575757575B2
:1039400075003C4A4FF400074FF0000A4FF005099C
:103950004FF01708019200F0E7F807210390204686
:1039600000F02AF9019A40461146FEF745F832491F
:10397000324A41F82A704C2101FB09F1304F52F8CC
:10398000262057F801C02F4B85F800800120904079
:1039900007EB01084CEA000C0020C5F804902C73DA
:1039A000A86008EB820247F801C002991960039BE6
:1039B000D361C2F804B0566305B0BDE8F08F4FF094
:1039C000000AD146204A40274FF00608C2E71F4AA6
:1039D00080274FF0000A4FF001094FF00708B9E7C0
:1039E0001B4A4FF480774FF0000A4FF002094FF066
:1039F0000808AFE7174A4FF400774FF0000A4FF07E
:103A000003094FF00908A5E7134A4FF480674FF008
:103A1000000A4FF004094FF00A089BE70F4A4FF4E1
:103A200080774FF0010A4FF006094FF0280891E720
:103A30000846C1E7FD38000800E100E0C4E00108E5
:103A4000C4040020D8060020D5380008DD3800085E
:103A5000E5380008ED380008F53800080539000899
:103A6000F8B50546007B6B680D490E4E00F00F045B
:103A70004C2202FB03F251F82430B158B41801274C
:103A80009F4004EB830321EA07070024B75040B2AC
:103A900021465C60DC615C6300F08EF8AC60F8BDD0
:103AA000C4E00108C404002072B1012920D0022919
:103AB00019D1836823F00203012B2BD081600721E9
:103AC00090F90C0000F078B801291BD002290AD126
:103AD000836823F00203012B23D082600C2190F92C
:103AE0000C0000F069B80C2190F90C0000F064B8EB
:103AF0008368023B012B0DD98160062190F90C00EF
:103B000000F05AB88368023B012BE6D80223836099
:103B10000721E9E703238360082190F90C0000F0F6
:103B20004BB883600621DFE708B507282FD8DFE808
:103B300000F00B121920272E2E04174B17481A6B72
:103B400042F080021A6308BD134B15481A6B42F00D
:103B500001021A6308BD104B12481A6B42F00202B0
:103B60001A6308BD0C4B10481A6B42F004021A632A
:103B700008BD094B0D481A6B42F008021A6308BDD4
:103B8000054B0B481A6B42F010021A6308BD094836
:103B900000F030FD002008BD00380240001C02404B
:103BA000000002400004024000080240000C0240F5
:103BB0000010024038E1010830B5431C87B00546CB
:103BC0000C461CD0C5F30310FFF7AEFF05F00F0540
:103BD00004F00F0201210D4B01FA05F553F82230D4
:103BE00001950322C4F3021501A9C4F3C31402937F
:103BF000039505940492FEF73FFA07B030BD0448E0
:103C000004497D2200F0E0FCDCE700BF04E101088C
:103C1000ACDF01085CE1010838B5431C04460D46E1
:103C200018D0C4F30310FFF77FFF04F00F04C2683D
:103C3000022D4FEA44044FF0030198BFA54001FA5A
:103C400004F422EA0404C460C26888BF0025154356
:103C5000C56038BD02480349A22200F0B5FCE0E788
:103C6000ACDF01085CE10108F8B50E46074621B358
:103C7000154B994221DC154D3C682C6048F201033C
:103C800001E0013B02D0A2699207FAD40F4C6E60AA
:103C900000234FF4804220466B61AB60EB612B62E6
:103CA000EB60AB612A61FEF725FB7B6823B12368DB
:103CB0001A6842F480621A60F8BD05480549672217
:103CC00000F082FCD7E700BF801A0600F41D002038
:103CD000C0E10108DCE1010830B404682648046052
:103CE0006FF480606061206840F48070206041F271
:103CF000010001E0013802D06569ED07FAD54FF403
:103D0000805001E0013830D06569ED07FAD501F047
:103D1000FE0121614FF4805101E0013925D0606935
:103D20008507FAD5002B6169A1694FF000050FDD09
:103D3000515D216141F2010104E06069400704D452
:103D400001390ED060690006F7D501359D42EFD1EB
:103D5000029B73B1236843F400732846236030BC90
:103D60007047236843F4007323604FF0FF3030BC8A
:103D70007047284630BC7047F41D00200068036877
:103D800071B123F480630360094A41F201031168B1
:103D900001E0013B08D04A695206FAD50069704734
:103DA00043F480630360EFE74FF0FF30704700BFDC
:103DB000F41D00202DE9F84307466FF480603C684D
:103DC000244D606120682C6040F4807090469946D4
:103DD000206041F2010501E0013D02D06369D8078E
:103DE000FAD54FF4805501E0013D2FD06669F20706
:103DF000FAD541F00101C9B221614FF4805101E0CF
:103E0000013923D063699B07FAD509F1FF35002DED
:103E10006369A3694FF0000408DD38460021FFF70D
:103E2000ADFF08F804000134AC42F6D1089B23B181
:103E30003B681A6842F400721A6038460121FFF7A5
:103E40009DFF08F804004846BDE8F8834FF0FF30B6
:103E5000BDE8F883F41D0020184B196848F20103EF
:103E600001E0013B02D08A699207FAD40368144A40
:103E7000934219D0134A93420CD0134A934208D16B
:103E8000124B1A6A42F400021A621A6A22F4000201
:103E90001A6270470D4B1A6A42F480021A621A6A5B
:103EA00022F480021A627047084B1A6A42F4001228
:103EB0001A621A6A22F400121A627047F41D002076
:103EC0000054004000580040005C004000380240B0
:103ED000F8B504460E4608464049154600F006FC73
:103EE0003F490746284600F001FC0146384600F0ED
:103EF000EBFB431C206069D003463A4A934230D022
:103F0000394A934210D0394A934203D1384B1A6848
:103F1000002A43D02046FFF79FFF20463549FFF790
:103F2000A3FE00236360F8BD334B1A68002AF1D169
:103F3000324A01211960136C284943F48003136449
:103F4000304600F09FFB2846254900F09BFB304699
:103F50000321FFF761FE28460321FFF75DFE23687A
:103F6000D1E7274B1A68002AD4D1244A01211960CD
:103F7000136C1A4943F400131364304600F082FBBB
:103F80002846174900F07EFB30460321FFF744FE28
:103F900028460321FFF740FE2368B1E7174A0121B5
:103FA0001960136C0D4943F400031364304600F0AC
:103FB00069FB28460A4900F065FB30460321FFF7FC
:103FC0002BFE28460321FFF727FEA3E70D480E49E5
:103FD0003A2200F0F9FA23688FE700BF04E40108F1
:103FE000FCE501080054004000580040005C00401F
:103FF000E0060020A0860100E40600200038024010
:10400000DC06002044E20108DCE1010810B507EEFF
:10401000901A334A03681360F5EEC07AF1EE10FA95
:1040200088B043D4B7EE007AF4EE477AF1EE10FA96
:10403000C8BFF0EE477AD0ED026A90F90420B8EEDE
:10404000667A002367EE277A6024FCEEE77A019413
:10405000C0ED037ACDED027A0393049305930693A2
:104060000793292A20D8DFE802F0342438301F349F
:104070003436342438301F1F1F3415321F243424A3
:1040800034243830381F1F3615321F1F1F1F1F1FC3
:1040900034243830042401A911482246FFF740F89F
:1040A00021460F48FFF7A6F808B010BDDFED0D7AE6
:1040B000C1E7042401A922460948FFF731F8214647
:1040C0000748FEF75FFF08B010BD0C24F2E7082494
:1040D000E1E70024EEE70024DDE70824EAE700BF7B
:1040E000E806002000000000F8B58268254C03684F
:1040F000236005460E46002A3ED007EE102AF8EE51
:10410000477A90ED037AF8EE476AB7EE007AC6EE8A
:10411000A77AF4EEC77AF1EE10FAC8BF17EE107A5C
:104120002CDD196A41F211120A4042B9196A40F2B3
:1041300044420A401AB91A6822F001021A60FFF7D5
:1041400077F9114A114B11680E48A3FB0121890C24
:104150000023721E0139E2602361A3606160FEF7F3
:1041600099FF28463946FFF751FF2368AE601A6869
:1041700042F001021A60F8BDDFED057A17EE907A81
:10418000CFE700BFE80600209C01002083DE1B4330
:104190000000000038B50D4604462E49284600F0C0
:1041A000A5FA431C206046D02B4B984232D0B0F188
:1041B000804F20D0294B984233D103F50D331A6C30
:1041C00042F002021A64264B984205D103F570436F
:1041D0005A6C42F480225A6428461E4900F052FA72
:1041E00000232571A360E360204644F62061BDE80A
:1041F0003840FFF779BF1B4B1A6C42F001021A647A
:10420000194B9842DFD103F574435A6C42F40032E3
:104210005A64E1E703F59C335A6C42F001025A6498
:10422000EEE7124B98420BD103F50C331A6C42F0B7
:1042300004021A64D0E70E4800F0DCF92068B3E706
:104240000C4B9842DCD103F578435A6C42F480322F
:104250005A64C1E794E401080000014000040040F2
:10426000004801400038024000440140000800407E
:104270005CE201080040014006EE901AB8EEE67AD2
:10428000D0ED026AF8EE667AC7EE277A17EE901A3A
:10429000FFF7BCBEF0B4114B90F919700668856841
:1042A000C468016942691E6001374FF000065D6015
:1042B0009C60D9601A619E610AD090F91820074865
:1042C00001320CBF04220C22F0BC5A61FFF784B803
:1042D000082202485A61F0BCFFF77EB82C1E00206D
:1042E000F8B504460E4608463449154600F0FEF976
:1042F00033490746284600F0F9F90146384600F0F0
:10430000E3F9411C206051D02E4B98423CD003F57C
:104310008063984230D0A3F55043984224D0304671
:10432000264900F0AFF92846254900F0ABF9721C88
:1043300003D030460121FFF76FFC6B1C03D02846E9
:104340000121FFF769FC00234FF41652A260E360DD
:1043500023616361267665762046FFF79BFF1A4A44
:104360002368934218D0F8BD184B196C012241F410
:10437000003119646260D2E7144B596C052241F098
:10438000200159646260CAE7104B596C002241F069
:10439000100159646260C2E70D4B0E4821460124AA
:1043A0001C601C22BDE8F84010F0AABD0A480B4969
:1043B000502200F009F92068A6E700BF38E601089E
:1043C0004CE4010800100140004400400038024065
:1043D00024070020681E002080E201089CE20108FA
:1043E000026813689B06FCD5024B50681A60C0F344
:1043F000080070472C1E0020026813681B06FCD5BD
:10440000024BC1F3080151601A6070472C1E002056
:10441000054B186800B17047044A05491160012234
:104420001A60FDF735BB00BF640700202807002095
:10443000000C004008B5044B1B680BB9FFF7E8FF00
:10444000024B586A08BD00BF64070020000C004002
:10445000034B1B685863DA6842F00202DA60704767
:1044600028070020034B1B68DA6822F00202DA609A
:10447000704700BF28070020024B1B686FF0020244
:104480001A6170472807002010B5044A044640F816
:10449000182BFFF7E5FA204610BD00BF10E3010816
:1044A00010B5054B044640F8183BFFF7D9FA2046F3
:1044B00000F08BFA204610BD10E30108012905D059
:1044C000022902D1443000F06FBA7047283000F062
:1044D0006BBA00BF70B5124B0360002504460E4650
:1044E00005718560C560056145610576C561056238
:1044F00080F824502946283000F050FA294604F16B
:10450000440000F04BFA31462346064A04F11800F5
:10451000FFF7FCF9201D314600F07EF8204670BD03
:1045200010E30108BD44000838B50025056045606A
:1045300085600446FFF77EFFA5606060204638BDB9
:10454000036810B5044623B9FFF774FF01236060C8
:10455000236010BD10B50446006818B1FFF76AFF6C
:104560006368C01AA36800221844A060226010BDCE
:1045700038B504460068A56818B1FFF75BFF6368AB
:10458000C01A284438BD00BF38B504460068A56885
:1045900018B1FFF74FFF6368C01A284407EE900A6E
:1045A000B8EEE77ADFED037AC7EE277A17EE900AC6
:1045B00038BD00BF0024744910B50446FFF73AFF28
:1045C00000236060A36010BD10B5084B1B6882B06B
:1045D000DC6800920B4602460549204610F09CF824
:1045E00002B0BDE81040FDF7FDB900BF8402002015
:1045F00018E301080FB400B5064B83B004AA1B688A
:1046000052F8041BD868019211F0A4FA01200FF0AF
:104610009BFE00BF8402002038B50D460446FFF71C
:1046200025F8013509D020460021FFF73BF8204648
:104630000021BDE83840FFF731B838BD38B50D4628
:104640000446FFF713F8013510D094F90030013318
:104650000DD02369A2881A8020460121FFF722F895
:1046600020460021BDE83840FFF718B838BD0348A0
:1046700003493522FFF7A8FFEBE700BF28E0010858
:104680004CE30108431C10B5044619D091F90030E1
:10469000581C04D10FE011F90C3F5A1C0BD09C425E
:1046A000F9D120468968FFF787FA20460021BDE846
:1046B0001040FFF7B1BA0348BDE81040FFF79ABFBA
:1046C00010BD00BFBCE30108884208B50AD0431CF6
:1046D00007D0013106D00448FFF78CFF4FF0FF30C0
:1046E00008BD084608BD00BFD0E3010808B5431C5B
:1046F0000DD091F900305A1C04D109E011F90C3F9A
:104700005A1C05D09842F9D14868411C00D008BD18
:104710000248FFF76FFF4FF0FF30F8E7E4E30108CE
:1047200038B5044600F0CAF8054620B100F0CCF8D0
:1047300004B1206038BD00F053F8284600F0F4F8CA
:10474000F4E700BF08B5FFF775FE024BA3FB00209E
:10475000400B08BD5917B7D170B5FFF78DFE0E4C51
:104760000E4E236873B11D68FFF764FE281A0028F7
:104770000CDC216832688B682360002AF2D048681C
:104780009047EEE7BDE87040FFF76CBE2368BDE8D8
:1047900070401868FFF75CBE680700206C070020B7
:1047A00038B50546FFF746FE0446FFF743FE001BFB
:1047B000A842FAD338BD00BF07EE100ADFED047A35
:1047C00067EE277AFDEEE77A17EE900AFFF7E8BF6B
:1047D000002474494FF47A7303FB00F0FFF7E0BF45
:1047E000F0B52E4B1C688DB00CB10DB0F0BD2C4E49
:1047F0002C4D2D4A2A6001271F60336C43F08053F3
:104800003364FDF7EBFD294B68461F601C600423F1
:10481000029706940093FDF7E7FD08BBB36823F405
:10482000F813B360B36823F4F813B360336F43F441
:1048300080733367FF221E4BEA6001221A60194819
:1048400000237F226B602B616B61AB61AA60FEF776
:104850007BF90028C9D01748FFF7CCFE0DB0F0BD9A
:104860000C2368460694029405970093FDF7BCFD5F
:1048700078B90B4B9A6822F4F8129A609A6822F47D
:10488000F8129A601A6F42F400721A6740F23712F7
:10489000D1E70948FFF7AEFEEBE700BF9007002025
:1048A000003802407007002000280040400E4742B8
:1048B0003C0E474278E701084CE70108014B1868B5
:1048C000704700BF9007002070B5154C154B236052
:1048D00090B002A920460022FEF7A8F801A92046C0
:1048E0000022FEF7D1F810A89DF805509DF807406A
:1048F0009DF80A309DF804609DF806109DF8082088
:1049000040F8243D013D9DF809300D9664340B9527
:104910000C940A910992089310F0F0FB10B070BD4E
:104920007007002000280040F0B589B008AB194D91
:1049300043F81C0D184A2A60184610F0C9F9076997
:10494000466981684268C368D0F818E08DF808E0CD
:104950000137643E8DF80C108DF80D208DF809702C
:104960008DF80B608DF80A3003688DF80E30002446
:104970004023224602A928468DF814300694079455
:10498000FEF7D2F92846224603A9FEF729F909B015
:10499000F0BD00BF7007002000280040002280E822
:1049A00006008261704700BF08B5036801460BB17D
:1049B000984708BD406810B18B690831984708BD19
:1049C0000346084619460FF0A9BC08B110F026BAF4
:1049D0007047000010B5002814BF0446012420468B
:1049E00010F014FA30B9044B1B680BB90FF03CFC03
:1049F0009847F4E710BD00BF240D0020836842688B
:104A00009A4230B518D24A1C12D013F8014C056AEC
:104A1000CAB2B4EB020CDCF1000454EB0C040CB988
:104A2000ED0609D55D1E856044B903F8012C05E04B
:104A3000013B8360002101E04FF0FF31084630BDAB
:104A400010B5054B044640F8243B01F051F92046CF
:104A500007F018FF204610BDA8E70108094B10B564
:104A6000036014330446C3620430FFF7E9FF0649CC
:104A7000204600F0BDFA04F12C0000F05BFD20465A
:104A800010BD00BF24E801080CE80108036853F8D2
:104A90000C3C1844E2E700BF10B50446FFF7D0FF16
:104AA0002046FFF792FF204610BD10B50446FFF7E1
:104AB000D5FF2046FFF789FF204610BD036853F855
:104AC0000C3C1844F1E7000038B504460D4607F0E9
:104AD000C5FF034B25622360024B2046636238BD4D
:104AE000A8E70108100D00200E4B13B503604B69B9
:104AF000044683B1CA680969934288BF1A4601A86F
:104B00006B4601F09BFB204601A901F06DFB01A85B
:104B100001F0EEF802E0243101F066FB204602B01D
:104B200010BD00BF100D00204369016A4BB1C2687F
:104B3000934200D870470A0701D443608360C36082
:104B400070477047036A1B0710B5044605D5FFF789
:104B5000EBFFE068A368C01A10BD4FF0FF3010BD36
:104B6000036A1B0710B5044602D44FF0FF3010BD96
:104B7000FFF7DAFFA368E2689342F6D2187810BD17
:104B800030B5DDE903454161016182616FF00042AA
:104B90000023A24273EB0501416907DA01F10041EC
:104BA00001394161A41A65EB0305EFE72144416136
:104BB00030BD2DE9F34106461046756A326A55F854
:104BC0000C7CA9420F44C2F3C00802F0100455F84F
:104BD000082C17BF3F1852183A460020B8F1000FB2
:104BE00003D008447160B060F76064B11C460025D2
:104BF000CDE900453046FFF7C3FFB8F1000F02D101
:104C00007760B760F76002B0BDE8F08170B5044628
:104C100015460E4651B1002A08DB243001F0E5F8B4
:104C2000204631462A460023FFF7C3FF204670BDC9
:104C3000036ADB062DE9F3410446884612D5B1F13B
:104C4000FF3F0DD082694169436A91422CBF002227
:104C5000012253F8083C42B92248834205D101E0C1
:104C600000203BE04FF0FF3038E05FFA88F6002A82
:104C70002FD15B00B3F5007F2CBF19464FF40071B4
:104C800002AD194B174A45F8043D914228BF114621
:104C9000284601F084F9216921B1A2692846521AF7
:104CA00001F022F92846314601F053FA04F12400BC
:104CB000294600F08BFFA768626866692369616A0C
:104CC0002046BA1AF31AFFF774FF284601F010F8CD
:104CD00000E00E70636901336361404602B0BDE8D5
:104CE000F08100BFFCFFFF3F100D00202DE9F04FC9
:104CF000824614461D464FF0FF324FF0FF3387B017
:104D0000CAE900230023CAF80830CAF80C300B6A3D
:104D10001198109E03F00802024203F010030CBF2A
:104D20000027012703420CBF002201222FB132B11C
:104D300016F1FF3318BF012302E03B4600E01346A3
:104D400010F0100F14BF4FF0000807F0010810F02A
:104D5000080F14BF002202F00102B8F1000F02D0C8
:104D6000D1F804B001E0D1F810B0BBF1000F02D1CE
:104D700054EA05005DD1B8F1000F02D10AB9002B49
:104D800057D00846039104920593FFF7CDFE03A97F
:104D9000012E0EC90DD18868CBEB000C4869CBEB16
:104DA0000000261845EBE07714EB0C0445EBEC759E
:104DB00009E0022E05D1C868CBEB0000241845EBB2
:104DC000E07526462F46B8F1000F01D1002B2ED0FA
:104DD000002C75F1000009DBC868CBEB00008046B1
:104DE0004FEAE079A04579EB05001ADA22B1002EEE
:104DF00077F1000303DA1CE0002BF8D119E0CA6850
:104E0000CBEB0202D317B24273EB070011DBCDE903
:104E10000067084609698269FFF7B2FECAE90067C0
:104E200007E0486820448860CAE90045DEE7002AB8
:104E3000DDD1504607B0BDE8F08F82B02DE9F347D1
:104E40000F460AA981E80C004FF0FF324FF0FF3304
:104E5000C0E9002300238360C3603B6A0E9903F01E
:104E600008020A4203F010030CBF4FF000084FF095
:104E700001080B420646DDE90A450CBF4FF0000A67
:104E80004FF0010AB8F1000F02D0D7F8049001E00A
:104E9000D7F81090B9F1000F02D154EA050329D1D7
:104EA000B8F1000F02D1BAF1000F23D03846FFF756
:104EB0003BFE002C75F100011CDBFA68C9EB020215
:104EC000D317A24273EB050114DBB8F1000F02D037
:104ED0007B682344BB60BAF1000F06D0CDE90045E2
:104EE00038463969BA69FFF74BFE0AAC94E80F00FF
:104EF00086E80F00304602B0BDE8F04702B07047C8
:104F0000F8B500F12C06044630460F4600F072FB5F
:104F10002046094900F088F8084B251D236014330A
:104F2000E36247F010012846FFF7CEFD30462946E0
:104F300000F094FB2046F8BD0CE8010824E80108C5
:104F400010B5054B03601433044640F8043F00F0ED
:104F5000F1FA204610BD00BFD4E80108036853F8F9
:104F60000C3C1844ECE700BF10B5054B036014334C
:104F7000044640F8043F00F0E7FA204610BD00BFA9
:104F800004E90108036853F80C3C1844ECE700BF3F
:104F900010B50446FFF7D4FF2046FFF716FD204664
:104FA00010BD036853F80C3C1844F1E710B50446F3
:104FB000FFF7DAFF2046FFF708FD204610BD036823
:104FC00053F80C3C1844F1E770B5051D044628461B
:104FD0000E4600F00FFB054B236014332846636038
:104FE000314600F03BFB204670BD00BFD4E801080D
:104FF0000A680260496852F80C2C815070470368B7
:1050000010B553F80C3C03440446986F50B107F0B8
:10501000F2FC013006D1236853F80C0C0121204426
:1050200000F0BEFA204610BD0B6810B503600446C0
:1050300053F80C0C4B6800212350204400F00EFB69
:10504000204610BD38B5002303700B6853F80C3CA4
:1050500005460B446960186F0C4608B15B6963B183
:10506000236853F80C0C2044436913B901232B70B7
:1050700006E0042100F094FA02E0FFF7C0FFEFE73A
:10508000284638BD38B543681A6852F80C5C1D4490
:105090000446EB689B0410D501F029FD68B9A86FA0
:1050A00058B107F0A8FC013007D163681A6852F8BC
:1050B0000C0C0121184400F073FA204638BD37B5B6
:1050C00004460D4668462146FFF7BCFF9DF80030B8
:1050D00083B1236853F80C3C23442946986F07F0AA
:1050E000A8FC013006D1236853F80C0C01212044A0
:1050F00000F056FA6846FFF7C5FF204603B030BD02
:1051000038B5036853F80C3C03440546DC6F0CB912
:1051100001F05BFC237F13B194F8271008E02046D0
:1051200000F0B1FC23680A219B692046984701469C
:105130002846FFF7C4FFFFF762FF38BD70B5051DB5
:10514000044628460E4600F0B7FA054B2360143398
:1051500028466360314600F0E4FA204670BD00BF87
:1051600004E90108036853F80C3C034410B50446F5
:10517000D86F50B107F084FC013006D1236853F892
:105180000C0C0121204400F091FA204610BD036868
:1051900070B5044653F80C0C20440D4600F01AFA82
:1051A0000646002D14DD236853F80C3C2344314699
:1051B000986F07F03EFC013008D1236853F80C0CBF
:1051C00001212044BDE8704000F0EAB9013DE8E764
:1051D00070BD38B5036853F80C3C03440446986F1F
:1051E000154607F036FCA84208D0236853F80C0C8B
:1051F00001212044BDE8384000F0D2B938BD2DE986
:10520000F34104460F46684621461546FFF71AFF4C
:105210009DF80030002B3CD0236853F80C3C23440D
:105220009E68AE4224DDDB6803F0B008B8F12003CD
:10523000D3F1000858EB0308B8F1000F03D1204662
:10524000711BFFF7A4FF236853F80C3C23445B69F0
:1052500023B9204639462A46FFF7BBFFB8F1000FB5
:105260000BD0236853F80C3C23445B6963B104E022
:10527000204639462A46FFF7ACFF236853F80C3C1A
:10528000234400229A6004E02046711BFFF77FFF51
:10529000F3E76846FFF7F6FE204602B0BDE8F0816E
:1052A00038B504460D4639B9036853F80C0C012192
:1052B000204400F075F907E0084612F0EFF929469E
:1052C00002462046FFF79BFF204638BD0A6852F889
:1052D0000C2C11448A6F0260D2F1010238BF002207
:1052E000027170472DE9F04306468BB004A83146A1
:1052F0001D461446FFF7A6FE9DF8103063B33368D1
:1053000053F80C3C3344D3F88080B8F1000F01D13E
:1053100001F05BFB06AF31463846FFF7D7FF336835
:1053200053F80C3C06EB0309484600F053F9CDE96D
:1053300002450190CDF8009097E80C0008A841467E
:1053400008F062FB9DF8243033B1336853F80C0C3D
:105350000121304400F024F904A8FFF793FE304601
:105360000BB0BDE8F08308B5FFF7BCFF08BD10B572
:105370000446084617F01CFE02460B462046FFF77F
:10538000B1FF10BD10B5034B0446036007F07AFA75
:10539000204610BD18EA010810B5034B044603600F
:1053A00007F07CFA204610BD58EA010810B5044603
:1053B000FFF7E8FF2046FFF708FB204610BD10B5B9
:1053C0000446FFF7E9FF2046FFF7FFFA204610BD2D
:1053D0002DE9F843314D2B685A1C81462A60002B79
:1053E00058D12F4C2F4B3048304FDFF8F080304EE3
:1053F00001221A702368996800F0CAFA23682D48C0
:10540000596800F0C5FA23682B48D96800F0C0FA43
:1054100038462549FFF7D8FD264940460DF08EFB5A
:1054200030462549FFF7D0FD23492448FFF7CCFD3E
:105430003369776743F4005333612368C8F87870A1
:1054400099681F481F4E204F00F0B2FA23681F488A
:10545000596800F0ADFA23681D48D9681D4C00F06A
:10546000A7FA17493046FFF769FE184938460DF08C
:105470007BFB17492046FFF761FE17481449FFF7E9
:105480005DFE2369BE6743F4005323612B686667A2
:1054900001332B604846BDE8F88300BF880D00202B
:1054A00084020020A0010020D40C00204C0A00201F
:1054B000BC070020680B0020240A0020200C0020DC
:1054C000FC09002048080020D8080020940700208C
:1054D000AC0C0020900B00206C090020D80A0020A2
:1054E0000D4A1368591E022B10B50446116011D1E4
:1054F0000A48FFF784FD0A48FFF781FD0948FFF7D6
:105500007EFD0948FFF72EFE0848FFF72BFE0848EE
:10551000FFF728FE204610BD880D00204C0A002011
:10552000BC070020200C002048080020900B002021
:105530006C09002010B5034B0446036007F0BCFD66
:10554000204610BD88E9010810B5034B04460360EE
:1055500007F0B2FD204610BD98E9010810B50446D9
:10556000FFF7E8FF2046FFF730FA204610BD10B5E0
:105570000446FFF7E9FF2046FFF727FA204610BD53
:1055800008B5836F0BB941F00101416142690369BC
:105590001A4202D0014801F027FA08BDF2E90108D9
:1055A00008B543691943FFF7EBFF08BD38B5C46F71
:1055B0000D460CB901F009FA237F13B10C44607F4A
:1055C00038BD204600F05FFA236820469B692946D3
:1055D000984738BD90F8753010B504463BB9202186
:1055E000FFF7E4FF012384F8740084F8753094F821
:1055F000740010BD10B5044607F01CFD074B236076
:10560000002384F87430236784F87530A367E36758
:10561000C4F88030C4F88430204610BD88E9010801
:1056200038B5044608460D4608F0F8FD10B1284686
:1056300008F0D2FAE067284608F00EFE10B12846BE
:1056400008F0BAFBC4F88000284608F023FE10B129
:10565000284608F0CFFBC4F8840038BD38B50446AE
:105660000D4601F0EEFC204604F16C01FFF7D8FF77
:10567000002384F8743084F8753023672361EB1AB3
:10568000A5675D425D41656138BD000008B5C36F27
:105690000BB941F001014161426903691A4202D02C
:1056A000014801F0A1F908BDF2E9010808B5436914
:1056B0001943FFF7EBFF08BD10B5044607F0BAFC2D
:1056C000074B236000232367636784F87830E36720
:1056D000C4F88030C4F88430C4F88830204610BD47
:1056E00098E9010838B5044608460D4602F0EAFA82
:1056F00010B1284602F014FAC4F88000284602F0DF
:10570000FFFA10B1284602F047FAC4F88400284690
:1057100002F014FB10B1284602F05CFAC4F88800CD
:1057200038BD38B504460D4601F08BFC204604F127
:105730006C01FFF7D7FF0023636784F87830236795
:105740002361EB1AE5675D425D41656138BD82B05A
:1057500037B506AD85E80C00002200920A9A0B6866
:1057600001921D69DDE906230446A847204603B0DF
:10577000BDE8304002B0704782B037B506AD85E86D
:105780000C00002200920A9A0B6801921D69DDE963
:1057900006230446A847204603B0BDE8304002B0C7
:1057A000704738B504460D46236A084601210FF0BC
:1057B00017F80028CABF2D184FF0FF3315F8013C29
:1057C000636238BD034608461B6A01210FF098B991
:1057D000F8B505460E4617460024BC4204D0286A98
:1057E0000FF0CEF9431C06D14CB104F18043013BCC
:1057F00056F8233005E046F824000134EDE74FF079
:10580000FF336B622046F8BD10B50446006A0FF006
:10581000B7F9606210BDF8B505460E46174600247C
:10582000BC4208D056F82400296A11F06DF8013006
:1058300001D00134F4E72046F8BD10B50446006AF3
:105840000FF06EF9606210BD10B50446006A0FF0EB
:1058500067F9216ABDE8104012F096BF4A1C10B5E6
:10586000044603D1406A431C01D103E00846216A83
:1058700012F08AFF4FF0FF33636210BD006A0EF032
:1058800079BE006A0EF076BEF8B5069B06464FF06C
:10589000FF344FF0FF35C0E9004500200F46B060EF
:1058A000F0601BB1012B14BF022301231146386A9B
:1058B0001A460EF0A5FF28B9386A0FF03DF8C11757
:1058C000C6E900013046F8BDF8B5069B06464FF024
:1058D000FF344FF0FF35C0E9004500200F46B060AF
:1058E000F0601BB1012B14BF022301231146386A5B
:1058F0001A460EF085FF28B9386A0FF01DF8C11757
:10590000C6E900013046F8BD10B50446006A0FF044
:1059100037F9216ABDE8104012F068BF4A1C10B583
:10592000044603D1406A431C04D000E00846216AC3
:1059300012F05CFF4FF0FF33636210BD4A1C08B5E4
:10594000034607D1006A0EF015FE003818BF6FF04D
:10595000000008BD0846196ABDE8084010F062BFA3
:105960004A1C08B5034607D1006A0EF003FE003852
:1059700018BF6FF0000008BD0846196ABDE808406E
:1059800010F0C2BF096851F80C2CFFF738BC0000BA
:1059900038B504460D4607F061F8044B25622360D4
:1059A0004FF0FF336362204638BD00BF18EA01089C
:1059B00038B504460D4607F087F8044B256223608E
:1059C0004FF0FF336362204638BD00BF58EA01083C
:1059D000084670470846704710B518461446521AD4
:1059E0000FF08EFA204610BD10B502981446521AD8
:1059F0000FF086FA204610BD10B5034B0446036035
:105A00000DF04AFB204610BDF0EE010810B5054B25
:105A1000044640F8083B07F009FB2046FFF7ECFF7F
:105A2000204610BDB0EB0108084B10B5044640F805
:105A3000083B07F0FBFA237B1BB1A06908B100F01B
:105A4000D6FF20460DF028FB204610BD70EB010864
:105A500010B50446FFF7DAFF2046FEF7B6FF2046F2
:105A600010BD10B50446FFF7C7FF2046FEF7ADFF97
:105A7000204610BD10B50446FFF7D6FF2046FEF7BE
:105A8000A4FF204610BDF0B50546C1B000240DF8B6
:105A900004400134B4F5807FF9D12B6805F11D066F
:105AA000DF69694640AA33462846B84701232B7769
:105AB0006846314622460FF014FA08B102232B77CC
:105AC00041B0F0BD0031084B18BF012110B5416055
:105AD000036004460DF00AFB0023A06023732046F8
